{
  "_format": "hh-sol-artifact-1",
  "contractName": "Lottery",
  "sourceName": "contracts/Lottery.sol",
  "abi": [
    {
      "inputs": [],
      "stateMutability": "nonpayable",
      "type": "constructor"
    },
    {
      "anonymous": false,
      "inputs": [
        {
          "indexed": false,
          "internalType": "uint256",
          "name": "ticketNo",
          "type": "uint256"
        },
        {
          "indexed": false,
          "internalType": "uint256",
          "name": "lotteryNo",
          "type": "uint256"
        },
        {
          "indexed": false,
          "internalType": "bytes32",
          "name": "ticketHash",
          "type": "bytes32"
        },
        {
          "indexed": false,
          "internalType": "address",
          "name": "ticketOwner",
          "type": "address"
        }
      ],
      "name": "TicketBought",
      "type": "event"
    },
    {
      "inputs": [
        {
          "internalType": "address",
          "name": "",
          "type": "address"
        }
      ],
      "name": "balance",
      "outputs": [
        {
          "internalType": "uint256",
          "name": "",
          "type": "uint256"
        }
      ],
      "stateMutability": "view",
      "type": "function"
    },
    {
      "inputs": [
        {
          "internalType": "bytes32",
          "name": "hash_rnd_number",
          "type": "bytes32"
        },
        {
          "internalType": "int256",
          "name": "tier",
          "type": "int256"
        }
      ],
      "name": "buyTicket",
      "outputs": [],
      "stateMutability": "nonpayable",
      "type": "function"
    },
    {
      "inputs": [
        {
          "internalType": "uint256",
          "name": "lottery_no",
          "type": "uint256"
        },
        {
          "internalType": "uint256",
          "name": "ticket_no",
          "type": "uint256"
        }
      ],
      "name": "checkIfTicketWon",
      "outputs": [
        {
          "internalType": "uint256",
          "name": "",
          "type": "uint256"
        }
      ],
      "stateMutability": "nonpayable",
      "type": "function"
    },
    {
      "inputs": [
        {
          "internalType": "uint256",
          "name": "lottery_no",
          "type": "uint256"
        },
        {
          "internalType": "uint256",
          "name": "ticket_no",
          "type": "uint256"
        }
      ],
      "name": "collectTicketPrize",
      "outputs": [
        {
          "internalType": "uint256",
          "name": "",
          "type": "uint256"
        }
      ],
      "stateMutability": "nonpayable",
      "type": "function"
    },
    {
      "inputs": [
        {
          "internalType": "uint256",
          "name": "ticket_no",
          "type": "uint256"
        }
      ],
      "name": "collectTicketRefund",
      "outputs": [],
      "stateMutability": "nonpayable",
      "type": "function"
    },
    {
      "inputs": [],
      "name": "depositEther",
      "outputs": [],
      "stateMutability": "payable",
      "type": "function"
    },
    {
      "inputs": [
        {
          "internalType": "uint256",
          "name": "ticket_no",
          "type": "uint256"
        }
      ],
      "name": "findTicketInfosFromNo",
      "outputs": [
        {
          "internalType": "uint256",
          "name": "",
          "type": "uint256"
        },
        {
          "internalType": "uint256",
          "name": "",
          "type": "uint256"
        }
      ],
      "stateMutability": "view",
      "type": "function"
    },
    {
      "inputs": [],
      "name": "getBalance",
      "outputs": [
        {
          "internalType": "uint256",
          "name": "",
          "type": "uint256"
        }
      ],
      "stateMutability": "view",
      "type": "function"
    },
    {
      "inputs": [
        {
          "internalType": "uint256",
          "name": "i",
          "type": "uint256"
        },
        {
          "internalType": "uint256",
          "name": "lottery_no",
          "type": "uint256"
        }
      ],
      "name": "getIthOwnedTicketNo",
      "outputs": [
        {
          "internalType": "uint256",
          "name": "",
          "type": "uint256"
        },
        {
          "internalType": "uint8",
          "name": "",
          "type": "uint8"
        }
      ],
      "stateMutability": "view",
      "type": "function"
    },
    {
      "inputs": [
        {
          "internalType": "uint256",
          "name": "i",
          "type": "uint256"
        },
        {
          "internalType": "uint256",
          "name": "lottery_no",
          "type": "uint256"
        }
      ],
      "name": "getIthWinningTicket",
      "outputs": [
        {
          "internalType": "uint256",
          "name": "ticket_no",
          "type": "uint256"
        },
        {
          "internalType": "uint256",
          "name": "amount",
          "type": "uint256"
        }
      ],
      "stateMutability": "nonpayable",
      "type": "function"
    },
    {
      "inputs": [
        {
          "internalType": "uint256",
          "name": "lottery_no",
          "type": "uint256"
        }
      ],
      "name": "getLastOwnedTicketNo",
      "outputs": [
        {
          "internalType": "uint256",
          "name": "",
          "type": "uint256"
        },
        {
          "internalType": "uint8",
          "name": "",
          "type": "uint8"
        }
      ],
      "stateMutability": "view",
      "type": "function"
    },
    {
      "inputs": [],
      "name": "getTicketNosArray",
      "outputs": [
        {
          "internalType": "uint256[]",
          "name": "",
          "type": "uint256[]"
        }
      ],
      "stateMutability": "view",
      "type": "function"
    },
    {
      "inputs": [
        {
          "internalType": "enum Lottery.TicketTier",
          "name": "tier",
          "type": "uint8"
        }
      ],
      "name": "getamount",
      "outputs": [
        {
          "internalType": "uint256",
          "name": "",
          "type": "uint256"
        }
      ],
      "stateMutability": "pure",
      "type": "function"
    },
    {
      "inputs": [
        {
          "internalType": "uint256",
          "name": "",
          "type": "uint256"
        }
      ],
      "name": "lotteryInfos",
      "outputs": [
        {
          "internalType": "uint256",
          "name": "lotteryNo",
          "type": "uint256"
        },
        {
          "internalType": "uint256",
          "name": "startTimestamp",
          "type": "uint256"
        }
      ],
      "stateMutability": "view",
      "type": "function"
    },
    {
      "inputs": [],
      "name": "lotteryNoCalculator",
      "outputs": [
        {
          "internalType": "uint256",
          "name": "",
          "type": "uint256"
        }
      ],
      "stateMutability": "view",
      "type": "function"
    },
    {
      "inputs": [
        {
          "internalType": "uint256",
          "name": "",
          "type": "uint256"
        }
      ],
      "name": "moneyCollectedForEachLottery",
      "outputs": [
        {
          "internalType": "uint256",
          "name": "",
          "type": "uint256"
        }
      ],
      "stateMutability": "view",
      "type": "function"
    },
    {
      "inputs": [
        {
          "internalType": "uint256",
          "name": "ticket_no",
          "type": "uint256"
        },
        {
          "internalType": "uint256",
          "name": "random_number",
          "type": "uint256"
        }
      ],
      "name": "revealRndNumber",
      "outputs": [],
      "stateMutability": "nonpayable",
      "type": "function"
    },
    {
      "inputs": [
        {
          "internalType": "address",
          "name": "",
          "type": "address"
        },
        {
          "internalType": "uint256",
          "name": "",
          "type": "uint256"
        }
      ],
      "name": "ticketNosArray",
      "outputs": [
        {
          "internalType": "uint256",
          "name": "",
          "type": "uint256"
        }
      ],
      "stateMutability": "view",
      "type": "function"
    },
    {
      "inputs": [
        {
          "internalType": "uint256",
          "name": "",
          "type": "uint256"
        }
      ],
      "name": "totalPrizeMoney",
      "outputs": [
        {
          "internalType": "uint256",
          "name": "",
          "type": "uint256"
        }
      ],
      "stateMutability": "view",
      "type": "function"
    },
    {
      "inputs": [
        {
          "internalType": "uint256",
          "name": "amount",
          "type": "uint256"
        }
      ],
      "name": "withdrawEther",
      "outputs": [],
      "stateMutability": "payable",
      "type": "function"
    }
  ],
  "bytecode": "0x60806040524260015534801561001457600080fd5b504260018190555061438f8061002b6000396000f3fe60806040526004361061011f5760003560e01c80639c7278ca116100a0578063ce91aa6a11610064578063ce91aa6a1461041a578063e2d2bf3414610445578063e3d670d714610483578063e54778b5146104c0578063f6789ca0146104fe5761011f565b80639c7278ca1461030f5780639eb763411461034c5780639f45d5af14610375578063a06cc71a146103b2578063c8e2d94b146103ef5761011f565b806339f7958b116100e757806339f7958b146102305780633bed33ce1461026d57806348367d1e14610289578063775f1aec146102c757806398ea5fca146103055761011f565b80630c40aebd1461012457806312065fe014610161578063125a7fd61461018c5780632b8bdc00146101c95780632e1fe45014610207575b600080fd5b34801561013057600080fd5b5061014b60048036038101906101469190612f8a565b610527565b6040516101589190612fd9565b60405180910390f35b34801561016d57600080fd5b50610176610558565b6040516101839190612fd9565b60405180910390f35b34801561019857600080fd5b506101b360048036038101906101ae9190612ff4565b61059f565b6040516101c09190612fd9565b60405180910390f35b3480156101d557600080fd5b506101f060048036038101906101eb9190612ff4565b6105b7565b6040516101fe92919061303d565b60405180910390f35b34801561021357600080fd5b5061022e60048036038101906102299190612ff4565b6107b8565b005b34801561023c57600080fd5b506102576004803603810190610252919061308b565b610a1e565b6040516102649190612fd9565b60405180910390f35b61028760048036038101906102829190612ff4565b610ad0565b005b34801561029557600080fd5b506102b060048036038101906102ab91906130b8565b610bf2565b6040516102be92919061303d565b60405180910390f35b3480156102d357600080fd5b506102ee60048036038101906102e99190612ff4565b610ed3565b6040516102fc9291906130f8565b60405180910390f35b61030d610fa0565b005b34801561031b57600080fd5b50610336600480360381019061033191906130b8565b610ff8565b6040516103439190612fd9565b60405180910390f35b34801561035857600080fd5b50610373600480360381019061036e91906130b8565b6113f1565b005b34801561038157600080fd5b5061039c60048036038101906103979190612ff4565b61166d565b6040516103a99190612fd9565b60405180910390f35b3480156103be57600080fd5b506103d960048036038101906103d491906130b8565b611685565b6040516103e69190612fd9565b60405180910390f35b3480156103fb57600080fd5b50610404611a93565b60405161041191906131df565b60405180910390f35b34801561042657600080fd5b5061042f611c07565b60405161043c9190612fd9565b60405180910390f35b34801561045157600080fd5b5061046c60048036038101906104679190612ff4565b611c47565b60405161047a9291906130f8565b60405180910390f35b34801561048f57600080fd5b506104aa60048036038101906104a59190613201565b611c6b565b6040516104b79190612fd9565b60405180910390f35b3480156104cc57600080fd5b506104e760048036038101906104e291906130b8565b611c83565b6040516104f59291906130f8565b60405180910390f35b34801561050a57600080fd5b506105256004803603810190610520919061329a565b611ecd565b005b6003602052816000526040600020818154811061054357600080fd5b90600052602060002001600091509150505481565b6000600460003373ffffffffffffffffffffffffffffffffffffffff1673ffffffffffffffffffffffffffffffffffffffff16815260200190815260200160002054905090565b60066020528060005260406000206000915090505481565b6000806000600360003373ffffffffffffffffffffffffffffffffffffffff1673ffffffffffffffffffffffffffffffffffffffff168152602001908152602001600020805490501161063f576040517f08c379a000000000000000000000000000000000000000000000000000000000815260040161063690613337565b60405180910390fd5b600080600090505b600360003373ffffffffffffffffffffffffffffffffffffffff1673ffffffffffffffffffffffffffffffffffffffff16815260200190815260200160002080549050811015610788578460086000600360003373ffffffffffffffffffffffffffffffffffffffff1673ffffffffffffffffffffffffffffffffffffffff16815260200190815260200160002084815481106106e7576106e6613357565b5b9060005260206000200154815260200190815260200160002060020154111561077557600360003373ffffffffffffffffffffffffffffffffffffffff1673ffffffffffffffffffffffffffffffffffffffff16815260200190815260200160002060018261075691906133b5565b8154811061076757610766613357565b5b906000526020600020015491505b8080610780906133e9565b915050610647565b50806008600083815260200190815260200160002060040160009054906101000a900460ff169250925050915091565b6000548111156107fd576040517f08c379a00000000000000000000000000000000000000000000000000000000081526004016107f4906134a3565b60405180910390fd5b3373ffffffffffffffffffffffffffffffffffffffff166008600083815260200190815260200160002060000160009054906101000a900473ffffffffffffffffffffffffffffffffffffffff1673ffffffffffffffffffffffffffffffffffffffff16146108a1576040517f08c379a000000000000000000000000000000000000000000000000000000000815260040161089890613535565b60405180910390fd5b6108a9611c07565b600860008381526020019081526020016000206002015414610900576040517f08c379a00000000000000000000000000000000000000000000000000000000081526004016108f7906135a1565b60405180910390fd5b60006008600083815260200190815260200160002060020154905060006008600084815260200190815260200160002060040160029054906101000a900460ff169050600061094e82610a1e565b905080600460003373ffffffffffffffffffffffffffffffffffffffff1673ffffffffffffffffffffffffffffffffffffffff168152602001908152602001600020600082825461099f91906135c1565b92505081905550806006600085815260200190815260200160002060008282546109c991906133b5565b9250508190555080600260008282546109e291906133b5565b9250508190555060006008600086815260200190815260200160002060040160016101000a81548160ff02191690831515021790555050505050565b60008060006003811115610a3557610a346135f5565b5b836003811115610a4857610a476135f5565b5b03610a565760509050610ac7565b60016003811115610a6a57610a696135f5565b5b836003811115610a7d57610a7c6135f5565b5b03610a8b5760289050610ac6565b60006003811115610a9f57610a9e6135f5565b5b836003811115610ab257610ab16135f5565b5b03610ac05760149050610ac5565b600090505b5b5b80915050919050565b80600460003373ffffffffffffffffffffffffffffffffffffffff1673ffffffffffffffffffffffffffffffffffffffff168152602001908152602001600020541015610b52576040517f08c379a0000000000000000000000000000000000000000000000000000000008152600401610b4990613670565b60405180910390fd5b80600460003373ffffffffffffffffffffffffffffffffffffffff1673ffffffffffffffffffffffffffffffffffffffff1681526020019081526020016000206000828254610ba191906133b5565b925050819055503373ffffffffffffffffffffffffffffffffffffffff166108fc829081150290604051600060405180830381858888f19350505050158015610bee573d6000803e3d6000fd5b5050565b600080610bfd611c07565b831115610c3f576040517f08c379a0000000000000000000000000000000000000000000000000000000008152600401610c36906136dc565b60405180910390fd5b83600360003373ffffffffffffffffffffffffffffffffffffffff1673ffffffffffffffffffffffffffffffffffffffff168152602001908152602001600020805490501015610cc4576040517f08c379a0000000000000000000000000000000000000000000000000000000008152600401610cbb90613748565b60405180910390fd5b60008060005b600360003373ffffffffffffffffffffffffffffffffffffffff1673ffffffffffffffffffffffffffffffffffffffff16815260200190815260200160002080549050811015610ec3578560086000600360003373ffffffffffffffffffffffffffffffffffffffff1673ffffffffffffffffffffffffffffffffffffffff1681526020019081526020016000208481548110610d6a57610d69613357565b5b906000526020600020015481526020019081526020016000206002015403610eb05760086000600360003373ffffffffffffffffffffffffffffffffffffffff1673ffffffffffffffffffffffffffffffffffffffff16815260200190815260200160002060018a85610ddd91906135c1565b610de791906133b5565b81548110610df857610df7613357565b5b9060005260206000200154815260200190815260200160002060010154925060086000600360003373ffffffffffffffffffffffffffffffffffffffff1673ffffffffffffffffffffffffffffffffffffffff16815260200190815260200160002060018a85610e6891906135c1565b610e7291906133b5565b81548110610e8357610e82613357565b5b9060005260206000200154815260200190815260200160002060040160009054906101000a900460ff1691505b8080610ebb906133e9565b915050610cca565b5081819350935050509250929050565b6000806000610ee0611c07565b905060005b600182610ef291906135c1565b811015610f985760005b600360003373ffffffffffffffffffffffffffffffffffffffff1673ffffffffffffffffffffffffffffffffffffffff16815260200190815260200160002080549050811015610f845785600860008881526020019081526020016000206001015403610f7157818194509450505050610f9b565b8080610f7c906133e9565b915050610efc565b508080610f90906133e9565b915050610ee5565b50505b915091565b34600460003373ffffffffffffffffffffffffffffffffffffffff1673ffffffffffffffffffffffffffffffffffffffff1681526020019081526020016000206000828254610fef91906135c1565b92505081905550565b6000611002611c07565b831115611044576040517f08c379a000000000000000000000000000000000000000000000000000000000815260040161103b906137da565b60405180910390fd5b600054821115611089576040517f08c379a00000000000000000000000000000000000000000000000000000000081526004016110809061386c565b60405180910390fd5b60016008600084815260200190815260200160002060040160009054906101000a900460ff1660ff16146110f2576040517f08c379a00000000000000000000000000000000000000000000000000000000081526004016110e9906138d8565b60405180910390fd5b3373ffffffffffffffffffffffffffffffffffffffff166008600084815260200190815260200160002060000160009054906101000a900473ffffffffffffffffffffffffffffffffffffffff1673ffffffffffffffffffffffffffffffffffffffff1614611196576040517f08c379a000000000000000000000000000000000000000000000000000000000815260040161118d90613944565b60405180910390fd5b60036111a0611c07565b10156111e1576040517f08c379a00000000000000000000000000000000000000000000000000000000081526004016111d8906139b0565b60405180910390fd5b6002836111ee91906135c1565b6111f6611c07565b1015611237576040517f08c379a000000000000000000000000000000000000000000000000000000000815260040161122e90613a42565b60405180910390fd5b600360056000858152602001908152602001600020600201805490501461129f57611261836124d9565b61126a8361284a565b600760008581526020019081526020016000208190555061129e83600760008681526020019081526020016000205461289f565b5b60008060005b600381101561134c5784600560008881526020019081526020016000206003016005600089815260200190815260200160002060020183815481106112ed576112ec613357565b5b90600052602060002001548154811061130957611308613357565b5b9060005260206000200154036113395780915061133260018361132c91906135c1565b8761297d565b925061134c565b8080611344906133e9565b9150506112a5565b50816002600082825461135f91906133b5565b925050819055508160066000878152602001908152602001600020600082825461138991906133b5565b9250508190555081600460003373ffffffffffffffffffffffffffffffffffffffff1673ffffffffffffffffffffffffffffffffffffffff16815260200190815260200160002060008282546113df91906135c1565b92505081905550819250505092915050565b600054821115611436576040517f08c379a000000000000000000000000000000000000000000000000000000000815260040161142d906134a3565b60405180910390fd5b3373ffffffffffffffffffffffffffffffffffffffff166008600084815260200190815260200160002060000160009054906101000a900473ffffffffffffffffffffffffffffffffffffffff1673ffffffffffffffffffffffffffffffffffffffff16146114da576040517f08c379a00000000000000000000000000000000000000000000000000000000081526004016114d190613535565b60405180910390fd5b60016114e4611c07565b6114ee91906133b5565b600860008481526020019081526020016000206002015414611545576040517f08c379a000000000000000000000000000000000000000000000000000000000815260040161153c90613aae565b60405180910390fd5b60006008600084815260200190815260200160002060040160009054906101000a900460ff1660ff16146115ae576040517f08c379a00000000000000000000000000000000000000000000000000000000081526004016115a590613b1a565b60405180910390fd5b600033826040516020016115c3929190613ba3565b6040516020818303038152906040528051906020012090506008600084815260200190815260200160002060030154810361162d5760016008600085815260200190815260200160002060040160006101000a81548160ff021916908360ff160217905550611668565b6040517f08c379a000000000000000000000000000000000000000000000000000000000815260040161165f90613c1b565b60405180910390fd5b505050565b60076020528060005260406000206000915090505481565b60006003611691611c07565b10156116d2576040517f08c379a00000000000000000000000000000000000000000000000000000000081526004016116c9906139b0565b60405180910390fd5b600054821115611717576040517f08c379a000000000000000000000000000000000000000000000000000000000815260040161170e9061386c565b60405180910390fd5b3373ffffffffffffffffffffffffffffffffffffffff166008600084815260200190815260200160002060000160009054906101000a900473ffffffffffffffffffffffffffffffffffffffff1673ffffffffffffffffffffffffffffffffffffffff16146117bb576040517f08c379a00000000000000000000000000000000000000000000000000000000081526004016117b290613944565b60405180910390fd5b60016008600084815260200190815260200160002060040160009054906101000a900460ff1660ff1614611824576040517f08c379a000000000000000000000000000000000000000000000000000000000815260040161181b90613cad565b60405180910390fd5b60028361183191906135c1565b611839611c07565b101561187a576040517f08c379a000000000000000000000000000000000000000000000000000000000815260040161187190613a42565b60405180910390fd5b60036005600085815260200190815260200160002060020180549050146118e2576118a4836124d9565b6118ad8361284a565b60076000858152602001908152602001600020819055506118e183600760008681526020019081526020016000205461289f565b5b6000806000600560008781526020019081526020016000206003016005600088815260200190815260200160002060020160008154811061192657611925613357565b5b90600052602060002001548154811061194257611941613357565b5b90600052602060002001549050600060056000888152602001908152602001600020600301600560008981526020019081526020016000206002016001815481106119905761198f613357565b5b9060005260206000200154815481106119ac576119ab613357565b5b90600052602060002001549050600060056000898152602001908152602001600020600301600560008a81526020019081526020016000206002016002815481106119fa576119f9613357565b5b906000526020600020015481548110611a1657611a15613357565b5b90600052602060002001549050828703611a4057611a3560018961297d565b945060019350611a85565b818703611a5d57611a5260028961297d565b945060019350611a84565b808703611a7a57611a6f60038961297d565b945060019350611a83565b60009350600094505b5b5b849550505050505092915050565b60606000600360003373ffffffffffffffffffffffffffffffffffffffff1673ffffffffffffffffffffffffffffffffffffffff1681526020019081526020016000208054905067ffffffffffffffff811115611af357611af2613ccd565b5b604051908082528060200260200182016040528015611b215781602001602082028036833780820191505090505b50905060005b600360003373ffffffffffffffffffffffffffffffffffffffff1673ffffffffffffffffffffffffffffffffffffffff16815260200190815260200160002080549050811015611bff57600360003373ffffffffffffffffffffffffffffffffffffffff1673ffffffffffffffffffffffffffffffffffffffff1681526020019081526020016000208181548110611bc257611bc1613357565b5b9060005260206000200154828281518110611be057611bdf613357565b5b6020026020010181815250508080611bf7906133e9565b915050611b27565b508091505090565b600080429050600060015482611c1d91906133b5565b90506000600162093a8083611c329190613d2b565b611c3c91906135c1565b905080935050505090565b60056020528060005260406000206000915090508060000154908060010154905082565b60046020528060005260406000206000915090505481565b600080611c8e611c07565b831115611cd0576040517f08c379a0000000000000000000000000000000000000000000000000000000008152600401611cc7906137da565b60405180910390fd5b6003611cda611c07565b1015611d1b576040517f08c379a0000000000000000000000000000000000000000000000000000000008152600401611d12906139b0565b60405180910390fd5b600283611d2891906135c1565b611d30611c07565b1015611d71576040517f08c379a0000000000000000000000000000000000000000000000000000000008152600401611d6890613a42565b60405180910390fd5b6003600560008581526020019081526020016000206002018054905014611dd957611d9b836124d9565b611da48361284a565b6007600085815260200190815260200160002081905550611dd883600760008681526020019081526020016000205461289f565b5b6001841480611de85750600284145b80611df35750600384145b611e32576040517f08c379a0000000000000000000000000000000000000000000000000000000008152600401611e2990613dce565b60405180910390fd5b600060056000858152602001908152602001600020600201600186611e5791906133b5565b81548110611e6857611e67613357565b5b90600052602060002001549050600560008581526020019081526020016000206003018181548110611e9d57611e9c613357565b5b90600052602060002001549250611eb383610ed3565b905080915050611ec3858561297d565b9150509250929050565b6001600080828254611edf91906135c1565b925050819055506000611ef0611c07565b9050600060038303611f8d5766071afd498d0000600460003373ffffffffffffffffffffffffffffffffffffffff1673ffffffffffffffffffffffffffffffffffffffff1681526020019081526020016000205411611f84576040517f08c379a0000000000000000000000000000000000000000000000000000000008152600401611f7b90613e60565b60405180910390fd5b600290506120bd565b6002830361202657660e35fa931a0000600460003373ffffffffffffffffffffffffffffffffffffffff1673ffffffffffffffffffffffffffffffffffffffff168152602001908152602001600020541161201d576040517f08c379a000000000000000000000000000000000000000000000000000000000815260040161201490613ef2565b60405180910390fd5b600190506120bc565b600183036120bb57661c6bf526340000600460003373ffffffffffffffffffffffffffffffffffffffff1673ffffffffffffffffffffffffffffffffffffffff16815260200190815260200160002054116120b6576040517f08c379a00000000000000000000000000000000000000000000000000000000081526004016120ad90613f84565b60405180910390fd5b600090505b5b5b60038210612176576003600560006002856120d891906133b5565b815260200190815260200160002060020180549050146121755761210760028361210291906133b5565b6124d9565b61211c60028361211791906133b5565b61284a565b6007600060028561212d91906133b5565b81526020019081526020016000208190555061217460028361214f91906133b5565b6007600060028661216091906133b5565b81526020019081526020016000205461289f565b5b5b33600860008054815260200190815260200160002060000160006101000a81548173ffffffffffffffffffffffffffffffffffffffff021916908373ffffffffffffffffffffffffffffffffffffffff16021790555060005460086000805481526020019081526020016000206001018190555081600860008054815260200190815260200160002060020181905550836008600080548152602001908152602001600020600301819055506000600860008054815260200190815260200160002060040160006101000a81548160ff021916908360ff1602179055506001600860008054815260200190815260200160002060040160016101000a81548160ff02191690831515021790555080600860008054815260200190815260200160002060040160026101000a81548160ff021916908360038111156122bd576122bc6135f5565b5b0217905550600360003373ffffffffffffffffffffffffffffffffffffffff1673ffffffffffffffffffffffffffffffffffffffff168152602001908152602001600020600054908060018154018082558091505060019003906000526020600020016000909190919091505561233381610a1e565b600460003373ffffffffffffffffffffffffffffffffffffffff1673ffffffffffffffffffffffffffffffffffffffff168152602001908152602001600020600082825461238191906133b5565b9250508190555061239181610a1e565b600260008282546123a291906135c1565b925050819055506005600083815260200190815260200160002060030160005490806001815401808255809150506001900390600052602060002001600090919091909150556123f181610a1e565b60066000848152602001908152602001600020600082825461241391906135c1565b925050819055507fe05a21008ad8797e44f0652da0d567fa36eaca0589491a7d9ca993685b2bfa35600860008054815260200190815260200160002060010154600860008054815260200190815260200160002060020154600860008054815260200190815260200160002060030154600860008054815260200190815260200160002060000160009054906101000a900473ffffffffffffffffffffffffffffffffffffffff166040516124cb9493929190613fc2565b60405180910390a150505050565b600360056000838152602001908152602001600020600301805490501015612536576040517f08c379a000000000000000000000000000000000000000000000000000000000815260040161252d9061409f565b60405180910390fd5b60028161254391906135c1565b61254b611c07565b101561258c576040517f08c379a000000000000000000000000000000000000000000000000000000000815260040161258390614131565b60405180910390fd5b6000600160056000848152602001908152602001600020600301805490506125b491906133b5565b90506000816001426125c691906135c1565b6040516020016125d69190614151565b6040516020818303038152906040528051906020012060001c6125f9919061416c565b90506005600084815260200190815260200160002060020181908060018154018082558091505060019003906000526020600020016000909190919091505560008260024261264891906135c1565b6040516020016126589190614151565b6040516020818303038152906040528051906020012060001c61267b919061416c565b90505b8082036126e4576000600190508360024261269991906135c1565b826040516020016126ab92919061419d565b6040516020818303038152906040528051906020012060001c6126ce919061416c565b915080806126db906133e9565b9150505061267e565b6005600085815260200190815260200160002060020181908060018154018082558091505060019003906000526020600020016000909190919091505560008360034261273191906135c1565b6040516020016127419190614151565b6040516020818303038152906040528051906020012060001c612764919061416c565b90505b8281148061277457508181145b156127d45760008460024261278991906135c1565b8260405160200161279b92919061419d565b6040516020818303038152906040528051906020012060001c6127be919061416c565b915080806127cb906133e9565b91505050612767565b6005600086815260200190815260200160002060020181908060018154018082558091505060019003906000526020600020016000909190919091505561281a8561284a565b60076000878152602001908152602001600020600082825461283c91906135c1565b925050819055505050505050565b60008061285860018461297d565b9050600061286760028561297d565b9050600061287660038661297d565b9050600081838561288791906135c1565b61289191906135c1565b905080945050505050919050565b80600660008481526020019081526020016000205410156128f5576040517f08c379a00000000000000000000000000000000000000000000000000000000081526004016128ec90614261565b60405180910390fd5b8060076000848152602001908152602001600020600082825461291891906135c1565b92505081905550600081600660008581526020019081526020016000205461294091906133b5565b9050806006600060018661295491906135c1565b8152602001908152602001600020600082825461297191906135c1565b92505081905550505050565b6000600183148061298e5750600283145b806129995750600383145b6129d8576040517f08c379a00000000000000000000000000000000000000000000000000000000081526004016129cf906142cd565b60405180910390fd5b6129e0611c07565b821115612a22576040517f08c379a0000000000000000000000000000000000000000000000000000000008152600401612a1990614339565b60405180910390fd5b6000806005600085815260200190815260200160002060030160056000868152602001908152602001600020600201600187612a5e91906133b5565b81548110612a6f57612a6e613357565b5b906000526020600020015481548110612a8b57612a8a613357565b5b9060005260206000200154905060018503612c055760006003811115612ab457612ab36135f5565b5b6008600083815260200190815260200160002060040160029054906101000a900460ff166003811115612aea57612ae96135f5565b5b03612b165760026006600086815260200190815260200160002054612b0f9190613d2b565b9150612c00565b60016003811115612b2a57612b296135f5565b5b6008600083815260200190815260200160002060040160029054906101000a900460ff166003811115612b6057612b5f6135f5565b5b03612b8c5760046006600086815260200190815260200160002054612b859190613d2b565b9150612bff565b60026003811115612ba057612b9f6135f5565b5b6008600083815260200190815260200160002060040160029054906101000a900460ff166003811115612bd657612bd56135f5565b5b03612bfe5760086006600086815260200190815260200160002054612bfb9190613d2b565b91505b5b5b612ee6565b60028503612d725760006003811115612c2157612c206135f5565b5b6008600083815260200190815260200160002060040160029054906101000a900460ff166003811115612c5757612c566135f5565b5b03612c835760046006600086815260200190815260200160002054612c7c9190613d2b565b9150612d6d565b60016003811115612c9757612c966135f5565b5b6008600083815260200190815260200160002060040160029054906101000a900460ff166003811115612ccd57612ccc6135f5565b5b03612cf95760086006600086815260200190815260200160002054612cf29190613d2b565b9150612d6c565b60026003811115612d0d57612d0c6135f5565b5b6008600083815260200190815260200160002060040160029054906101000a900460ff166003811115612d4357612d426135f5565b5b03612d6b5760106006600086815260200190815260200160002054612d689190613d2b565b91505b5b5b612ee5565b60038503612edf5760006003811115612d8e57612d8d6135f5565b5b6008600083815260200190815260200160002060040160029054906101000a900460ff166003811115612dc457612dc36135f5565b5b03612df05760086006600086815260200190815260200160002054612de99190613d2b565b9150612eda565b60016003811115612e0457612e036135f5565b5b6008600083815260200190815260200160002060040160029054906101000a900460ff166003811115612e3a57612e396135f5565b5b03612e665760106006600086815260200190815260200160002054612e5f9190613d2b565b9150612ed9565b60026003811115612e7a57612e796135f5565b5b6008600083815260200190815260200160002060040160029054906101000a900460ff166003811115612eb057612eaf6135f5565b5b03612ed85760206006600086815260200190815260200160002054612ed59190613d2b565b91505b5b5b612ee4565b600091505b5b5b819250505092915050565b600080fd5b600073ffffffffffffffffffffffffffffffffffffffff82169050919050565b6000612f2182612ef6565b9050919050565b612f3181612f16565b8114612f3c57600080fd5b50565b600081359050612f4e81612f28565b92915050565b6000819050919050565b612f6781612f54565b8114612f7257600080fd5b50565b600081359050612f8481612f5e565b92915050565b60008060408385031215612fa157612fa0612ef1565b5b6000612faf85828601612f3f565b9250506020612fc085828601612f75565b9150509250929050565b612fd381612f54565b82525050565b6000602082019050612fee6000830184612fca565b92915050565b60006020828403121561300a57613009612ef1565b5b600061301884828501612f75565b91505092915050565b600060ff82169050919050565b61303781613021565b82525050565b60006040820190506130526000830185612fca565b61305f602083018461302e565b9392505050565b6004811061307357600080fd5b50565b60008135905061308581613066565b92915050565b6000602082840312156130a1576130a0612ef1565b5b60006130af84828501613076565b91505092915050565b600080604083850312156130cf576130ce612ef1565b5b60006130dd85828601612f75565b92505060206130ee85828601612f75565b9150509250929050565b600060408201905061310d6000830185612fca565b61311a6020830184612fca565b9392505050565b600081519050919050565b600082825260208201905092915050565b6000819050602082019050919050565b61315681612f54565b82525050565b6000613168838361314d565b60208301905092915050565b6000602082019050919050565b600061318c82613121565b613196818561312c565b93506131a18361313d565b8060005b838110156131d25781516131b9888261315c565b97506131c483613174565b9250506001810190506131a5565b5085935050505092915050565b600060208201905081810360008301526131f98184613181565b905092915050565b60006020828403121561321757613216612ef1565b5b600061322584828501612f3f565b91505092915050565b6000819050919050565b6132418161322e565b811461324c57600080fd5b50565b60008135905061325e81613238565b92915050565b6000819050919050565b61327781613264565b811461328257600080fd5b50565b6000813590506132948161326e565b92915050565b600080604083850312156132b1576132b0612ef1565b5b60006132bf8582860161324f565b92505060206132d085828601613285565b9150509250929050565b600082825260208201905092915050565b7f596f7520646f6e6074206861766520616e79207469636b657473000000000000600082015250565b6000613321601a836132da565b915061332c826132eb565b602082019050919050565b6000602082019050818103600083015261335081613314565b9050919050565b7f4e487b7100000000000000000000000000000000000000000000000000000000600052603260045260246000fd5b7f4e487b7100000000000000000000000000000000000000000000000000000000600052601160045260246000fd5b60006133c082612f54565b91506133cb83612f54565b92508282039050818111156133e3576133e2613386565b5b92915050565b60006133f482612f54565b91507fffffffffffffffffffffffffffffffffffffffffffffffffffffffffffffffff820361342657613425613386565b5b600182019050919050565b7f5468657265206973206e6f207469636b657420776974682074686973206e756d60008201527f62657220696e207468652073797374656d000000000000000000000000000000602082015250565b600061348d6031836132da565b915061349882613431565b604082019050919050565b600060208201905081810360008301526134bc81613480565b9050919050565b7f596f7520617265206e6f7420746865206f776e6572206f66207468697320746960008201527f636b657400000000000000000000000000000000000000000000000000000000602082015250565b600061351f6024836132da565b915061352a826134c3565b604082019050919050565b6000602082019050818103600083015261354e81613512565b9050919050565b7f596f752063616e6e6f7420726566756e6420616e796d6f726500000000000000600082015250565b600061358b6019836132da565b915061359682613555565b602082019050919050565b600060208201905081810360008301526135ba8161357e565b9050919050565b60006135cc82612f54565b91506135d783612f54565b92508282019050808211156135ef576135ee613386565b5b92915050565b7f4e487b7100000000000000000000000000000000000000000000000000000000600052602160045260246000fd5b7f696e73756666696369656e742062616c616e6365000000000000000000000000600082015250565b600061365a6014836132da565b915061366582613624565b602082019050919050565b600060208201905081810360008301526136898161364d565b9050919050565b7f4c6f747465727920686173206e6f742073746172746564207965740000000000600082015250565b60006136c6601b836132da565b91506136d182613690565b602082019050919050565b600060208201905081810360008301526136f5816136b9565b9050919050565b7f596f7520646f6e607420686176652074686174206d616e79207469636b657473600082015250565b60006137326020836132da565b915061373d826136fc565b602082019050919050565b6000602082019050818103600083015261376181613725565b9050919050565b7f4c6f747465727920796f75206172652072657175657374696e6720686173206e60008201527f6f74207374617274656420796574210000000000000000000000000000000000602082015250565b60006137c4602f836132da565b91506137cf82613768565b604082019050919050565b600060208201905081810360008301526137f3816137b7565b9050919050565b7f546865207469636b657420796f75206172652072657175657374696e6720646f60008201527f6573206e6f742065786973740000000000000000000000000000000000000000602082015250565b6000613856602c836132da565b9150613861826137fa565b604082019050919050565b6000602082019050818103600083015261388581613849565b9050919050565b7f5469636b6574206973206e6f742072657665616c656400000000000000000000600082015250565b60006138c26016836132da565b91506138cd8261388c565b602082019050919050565b600060208201905081810360008301526138f1816138b5565b9050919050565b7f596f7520617265206e6f7420746865206f776e65722100000000000000000000600082015250565b600061392e6016836132da565b9150613939826138f8565b602082019050919050565b6000602082019050818103600083015261395d81613921565b9050919050565b7f596f752063616e6e6f74207069636b2077696e6e657221000000000000000000600082015250565b600061399a6017836132da565b91506139a582613964565b602082019050919050565b600060208201905081810360008301526139c98161398d565b9050919050565b7f546f6f206561726c7920746f20636f6c6c656374207469636b6574207072697a60008201527f6521000000000000000000000000000000000000000000000000000000000000602082015250565b6000613a2c6022836132da565b9150613a37826139d0565b604082019050919050565b60006020820190508181036000830152613a5b81613a1f565b9050919050565b7f696e636f72726563742074696d6520746f2072657665616c0000000000000000600082015250565b6000613a986018836132da565b9150613aa382613a62565b602082019050919050565b60006020820190508181036000830152613ac781613a8b565b9050919050565b7f536f7272792c20796f75206861766520616c72656164792072657665616c6564600082015250565b6000613b046020836132da565b9150613b0f82613ace565b602082019050919050565b60006020820190508181036000830152613b3381613af7565b9050919050565b60008160601b9050919050565b6000613b5282613b3a565b9050919050565b6000613b6482613b47565b9050919050565b613b7c613b7782612f16565b613b59565b82525050565b6000819050919050565b613b9d613b9882612f54565b613b82565b82525050565b6000613baf8285613b6b565b601482019150613bbf8284613b8c565b6020820191508190509392505050565b7f496e636f7272656374206e756d62657221000000000000000000000000000000600082015250565b6000613c056011836132da565b9150613c1082613bcf565b602082019050919050565b60006020820190508181036000830152613c3481613bf8565b9050919050565b7f596f752068617665206e6f742072657665616c6564207468652072616e646f6d60008201527f206e756d62657220796574210000000000000000000000000000000000000000602082015250565b6000613c97602c836132da565b9150613ca282613c3b565b604082019050919050565b60006020820190508181036000830152613cc681613c8a565b9050919050565b7f4e487b7100000000000000000000000000000000000000000000000000000000600052604160045260246000fd5b7f4e487b7100000000000000000000000000000000000000000000000000000000600052601260045260246000fd5b6000613d3682612f54565b9150613d4183612f54565b925082613d5157613d50613cfc565b5b828204905092915050565b7f496e76616c6964206e756d626572206f662077696e6e696e67207469636b657460008201527f2100000000000000000000000000000000000000000000000000000000000000602082015250565b6000613db86021836132da565b9150613dc382613d5c565b604082019050919050565b60006020820190508181036000830152613de781613dab565b9050919050565b7f696e73756666696369656e742062616c616e636520666f72207175617274657260008201527f207469636b657400000000000000000000000000000000000000000000000000602082015250565b6000613e4a6027836132da565b9150613e5582613dee565b604082019050919050565b60006020820190508181036000830152613e7981613e3d565b9050919050565b7f696e73756666696369656e742062616c616e636520666f722068616c6620746960008201527f636b657400000000000000000000000000000000000000000000000000000000602082015250565b6000613edc6024836132da565b9150613ee782613e80565b604082019050919050565b60006020820190508181036000830152613f0b81613ecf565b9050919050565b7f696e73756666696369656e742062616c616e636520666f722066756c6c20746960008201527f636b657400000000000000000000000000000000000000000000000000000000602082015250565b6000613f6e6024836132da565b9150613f7982613f12565b604082019050919050565b60006020820190508181036000830152613f9d81613f61565b9050919050565b613fad8161322e565b82525050565b613fbc81612f16565b82525050565b6000608082019050613fd76000830187612fca565b613fe46020830186612fca565b613ff16040830185613fa4565b613ffe6060830184613fb3565b95945050505050565b7f5468657265206973206e6f7420656e6f756768207469636b657420666f72207060008201527f69636b696e672077696e6e6572732c206c6f74746572792069732063616e636560208201527f6c6c656421000000000000000000000000000000000000000000000000000000604082015250565b60006140896045836132da565b915061409482614007565b606082019050919050565b600060208201905081810360008301526140b88161407c565b9050919050565b7f596f752063616e6e6f74207069636b207468652077696e6e657220666f72207460008201527f686973206c6f74746572792e0000000000000000000000000000000000000000602082015250565b600061411b602c836132da565b9150614126826140bf565b604082019050919050565b6000602082019050818103600083015261414a8161410e565b9050919050565b600061415d8284613b8c565b60208201915081905092915050565b600061417782612f54565b915061418283612f54565b92508261419257614191613cfc565b5b828206905092915050565b60006141a98285613b8c565b6020820191506141b98284613b8c565b6020820191508190509392505050565b7f4c6f747465727920697320696e76616c69642c2062656361757365207468657260008201527f65206973206e6f7420656e6f756768206d6f6e657920696e20746865204c6f7460208201527f7465727920666f7220746865207072697a657300000000000000000000000000604082015250565b600061424b6053836132da565b9150614256826141c9565b606082019050919050565b6000602082019050818103600083015261427a8161423e565b9050919050565b7f496e76616c696420707269636520747970652100000000000000000000000000600082015250565b60006142b76013836132da565b91506142c282614281565b602082019050919050565b600060208201905081810360008301526142e6816142aa565b9050919050565b7f496e76616c6964206c6f7474657279206e756d62657221000000000000000000600082015250565b60006143236017836132da565b915061432e826142ed565b602082019050919050565b6000602082019050818103600083015261435281614316565b905091905056fea26469706673582212202f4eac2eac60651df2bf79c9643f2b3f3c679efa61e4b3adda6baa71b9073b2a64736f6c63430008120033",
  "linkReferences": {},
  "deployedLinkReferences": {}
}